:100000000C94D3010C943E1C0C941A020C941A020A
:100010000C941A020C941A020C941A020C941A02F0
:100020000C941A020C941A020C94AA230C947E24A9
:100030000C94CD1E0C941A020C941A020C941A0201
:100040000C941A020C941A020C941A020C941A02C0
:100050000C941A020C94401F0C941A020C941A026D
:100060000C941A020C941A020C941A020C941A02A0
:100070000C941A020C941A020C941A020C941A0290
:100080000C941A020C941A020C941A020C941A0280
:100090000C941A020C941A020C941A020C941A0270
:1000A0000C941A020C941A020C941A0229001E00D5
:1000B0001F002000210022002B0014001A0008005D
:1000C00015001700390004001600070009000A0097
:1000D000E1001D001B0006001900050000000000E3
:1000E000E000E2002C00E10000000000E300025309
:1000F00001516500230024002500260027002A0066
:100100001C0018000C00120013004C000B000D0026
:100110000E000F00330028001100100036003700D9
:1001200038003400E4002C00E500E6000000000088
:100130005000520051004F00000000004600010036
:100140002F023002350235000100010001000100DC
:100150000100BE0001000100010001000100BD001E
:100160000100010001000100010001000000000089
:100170000100010001000100000000000100010079
:100180000100005C2D002E022E002F0030004900DF
:10019000A90001000100010001000100AA00010006
:1001A000010001002D020100A80001000100010072
:1001B00031003102010001000100010000000000D7
:1001C0004A004B004E004D000000000045003A0080
:1001D0003B003C003D003E00010001000100010029
:1001E0000100010001000100010001000100010007
:1001F00001000100010001000100010000000000F9
:1002000001000100010001000000000001000100E8
:10021000010001003F004000410042004300440053
:1002200000005F00600061005600550000005C00A7
:100230005D005E0057000000000059005A005B009E
:10024000670054000100010062006300000000002C
:100250000100010001000100000000002C03440027
:1002600061006300740079006C002D004D00610096
:100270006E00750066006F0072006D00200028009F
:10028000350078003600290000000E03740073006A
:1002900068006F0072007400000004030904090282
:1002A0003B00020100A0FA09040000010301010063
:1002B0000921110100012240000705810308000AFD
:1002C00009040100010300000009211101000122BD
:1002D0007B000705820320000A12010002000000D3
:1002E000084D44363501000102000105010902A153
:1002F0000185020901A10005091901290815002538
:100300000195087501810205010930093115812522
:100310007F95027508810609381581257F9501753D
:10032000088106050C0A38021581257F950175089C
:100330008106C0C005010980A101850319012AB702
:1003400000150126B700950175108100C0050C0944
:1003500001A101850419012AA002150126A0029518
:100360000175108100C005010906A101050719E00A
:1003700029E7150025019508750181029501750889
:1003800081010507190029FF150026FF0095067554
:100390000881000508190129059505750191029547
:1003A0000175039101C011241FBECFEFDAE0DEBF5B
:1003B000CDBF04B603FE27C08091C3029091C40252
:1003C000A091C502B091C6028730904BA740B04BB8
:1003D000D1F41092C3021092C4021092C50210927E
:1003E000C60214BE84B7877F84BF0FB6F894A89561
:1003F00080916000886180936000109260000FBE61
:10040000E0E0F8E3099511E0A0E0B1E0E4EEFDE4FE
:1004100002C005900D92AC3AB107D9F722E0ACEAE0
:10042000B1E001C01D92A33CB207E1F70E94801524
:100430000C94C8260C94000081E0089581E0089592
:100440000C941E0208950C9422021F93CF93DF9305
:1004500000D000D00F92CDB7DEB749835A836B83AB
:100460003091AE0189819A8131111DC06623B9F0A6
:100470002223A9F00E948A08182F682F89819A8167
:100480000E94330869817A81812F0F900F900F901D
:100490000F900F90DF91CF911F910C940A0F0E9443
:1004A0006108182FEFCF0E948A0869817A81EDCF09
:1004B000FC01262F408151816281738184810C94DB
:1004C000250281E00895CF93DF93EC0160E00E9464
:1004D0005802BE01DF91CF910C9423020E945B1160
:1004E0000E94EB020C9480110C94831180E00C9418
:1004F000EC02089508950E94DC060E947A022FEF14
:1005000084E39CE0215080409040E1F700C000006F
:100510000C94641F0F931F93CF93DF938C0161E0C2
:100520000E945802EC01B8010E9420028823A9F120
:10053000B801CE010E94461B882379F1B801CE0193
:100540000E943018882349F1B801CE010E94B01AE8
:10055000882319F1F8018281882361F0CB35FDE50C
:10056000DF0721F170F4C115ECE5DE07A1F0CF3D06
:10057000DC45C9F0C801DF91CF911F910F910C9418
:100580001C02CC358DE5D807A1F0CD35DD4591F7BE
:100590000E94710DEFCF0E947B0280E0DF91CF912E
:1005A0001F910F9108950E94250EF7CF0E947A0D9A
:1005B000E1CF0E947D0DDECF0C9479020E94C21D16
:1005C0000E94EC020C94DC0208950C94E40281E099
:1005D00008950C94E7020895CF93C82F0E94E50276
:1005E0008C2FCF910C94E902CF93DF93CDB7DEB778
:1005F0002B970FB6F894DEBF0FBECDBF4F83588741
:1006000069877A878B8761110E94BF0C1E821D82C9
:1006100085E0FE013796DE01119601900D928A95D4
:10062000E1F78C819D81892B89F449815A816B8105
:100630007C818D819E810E94E00B2B960FB6F894F1
:10064000DEBF0FBECDBFDF91CF91089589819A8122
:1006500089238F3F51F3CE0101960E9461028111DF
:10066000E4CFEBCFFC01808191810C94CC08CF9337
:10067000C82F882309F490C08238C1F40E94C21D9B
:1006800081FD8AC089E30E947A0C0E94EF0C2FEF53
:1006900081EE94E0215080409040E1F700C00000DE
:1006A00089E30E94810CCF910C94EF0C8338A1F464
:1006B0000E94C21D80FD70C083E50E947A0C0E94DA
:1006C000EF0C2FEF81EE94E0215080409040E1F755
:1006D00000C0000083E5E5CF8438A1F40E94C21D6C
:1006E00082FD5AC087E40E947A0C0E94EF0C2FEF23
:1006F00081EE94E0215080409040E1F700C000007E
:1007000087E4CFCF8CEF8C0F813AB8F48C2F0E9406
:10071000F419811141C06C2F809102019091030165
:100720000E942C1E882329F08C2F0E94810C0E948D
:10073000EF0C8C2F0E947A0CB6CF80E28C0F8830A1
:1007400048F4C77081E001C0880FCA95EAF70E949B
:10075000A20CA9CFEBE5EC0FE33040F4F0E0EC594C
:10076000FE4F808190E0CF910C94EE1DE8E5EC0FF8
:10077000E73150F4F0E0EE0FFF1FEA5CFE4F80819E
:100780009181CF910C94041ECD3E30F08C2F0E94AD
:100790001016CF910C94E316CF910895882309F495
:1007A00052C0823871F40E94C21D81FF4CC089E39F
:1007B0000E947A0C0E94EF0C89E30E94810C0C9439
:1007C000EF0C833859F40E94C21D80FF3CC083E5C2
:1007D0000E947A0C0E94EF0C83E5EFCF843859F425
:1007E0000E94C21D82FF2FC087E40E947A0C0E94E3
:1007F000EF0C87E4E2CF9CEF980F913AF0F290E291
:10080000980F983050F4877091E001C0990F8A9545
:10081000EAF7892F0E94A80CD2CF9BE5980F93305E
:1008200020F490E080E00C94EE1D98E5980F97314D
:1008300020F490E080E00C94041E8D3E20F00E9495
:100840006A160C94E31608951F93CF93DF93182F25
:10085000EB010E943703209731F4812FDF91CF9174
:100860001F910C94CE038FE99FE00197F1F700C030
:1008700000002197F0CF70E060E0893311F460E56B
:1008800070E00C942404882321F00E94A20C0C94A4
:10089000EF0C0895882321F00E94A80C0C94EF0C13
:1008A0000895BF92CF92DF92EF92FF920F931F9322
:1008B000CF93DF936C01D62FC72FFC011281F580F7
:1008C000F2949FE0F9220E94980CE82E8823B9F058
:1008D000E12E1123A1F08C2F807F803421F080E263
:1008E0008D0F8830B0F08091960282FD12C082E0B8
:1008F0000E94400D0E94980C91E0E82EE926BC2E43
:10090000B2948FE0B822EB2DF0E0E653F94D0C9451
:100910005626E12CF4CF0C2F0F70C07F11F00295FA
:10092000007F112399F0002359F080E28D0F883069
:1009300010F0D11107C0802F0E94A20C0E94EF0C72
:100940008D2F41C0802F0E94B20CF8CF8D2F0E94B6
:10095000CE03002309F43FC080E28D0F883010F0F1
:10096000D11104C0802F0E94A80C03C0802F0E94C8
:10097000B80C0E94EF0C2FC00C2F0F70C07FC0323C
:1009800011F00295007FDD2381F0D13009F469C0B8
:10099000112309F473C0FF2009F469C0F6018581B1
:1009A00080FFCECF8F70858362C08091960282FFD8
:1009B00038C0112359F0002329F0802F0E94A20C87
:1009C0000E94EF0C80E00E94370305C080E00E9487
:1009D000CE030111C7CFEB2DE850FF0B349720F465
:1009E0000E94C21D0E94EC02EE2009F482C10E9406
:1009F000940C80FD7EC1F60112820E948E0C0E9432
:100A00009707C6010E949A060E948E0CDF91CF9133
:100A10001F910F91FF90EF90DF90CF90BF900C94BB
:100A2000B807112389F0F11006C00E94D20C802B68
:100A30000E944304D0CFF1E0FF12F7CF0E94D20C06
:100A4000802B0E94D80CC7CFF11006C00E94E50C85
:100A5000802F0E944A04BFCF21E0F21609F4BBCFD9
:100A6000F5CF112331F035E03F1508F4B4CF802FD6
:100A7000DFCF84E08F1508F4AECFEACFFF2041F33B
:100A8000D93349F4FFEF27EE33E0F15020403040F6
:100A9000E1F700C000008D2F0E94CE039CCF8C2F69
:100AA00086958695837069F0813009F094CF8D2FFB
:100AB0009C2F9370111102C090E080E00E94041EF0
:100AC0008ACF8D2F9C2F9370111102C090E080E08F
:100AD0000E94EE1D80CF8D2F112329F00E94101649
:100AE0000E94E31678CF0E946A16FACF8C2F83708B
:100AF00009F041C011116FCF4D2F429546954770B7
:100B0000440F440F0D2F0F7010E030E020E0042E52
:100B100004C0000F111F221F331F0A94D2F760E098
:100B200070E0CB01D4FF0FC06FE070E080E090E098
:100B300004C0660F771F881F991F4A95D2F76095EA
:100B4000709580959095C695C695C370602B712B56
:100B5000822B932BC23049F058F4C13019F00E9417
:100B6000490739CF0E94370736CF0E945B0733CF42
:100B70000E94350730CF8695112311F08C2F81709C
:100B8000882309F428CF4D2F429546954770440F8E
:100B9000440F0D2F0F7010E030E020E0042E04C051
:100BA000000F111F221F331F0A94D2F760E070E07C
:100BB000CB01D4FF0FC06FE070E080E090E004C094
:100BC000660F771F881F991F4A95D2F76095709519
:100BD00080959095C695C695C370602B712B822B1E
:100BE000932BC23049F058F4C13019F00E940E081E
:100BF000F2CE0E94FC07EFCE0E942008ECCE0E94AD
:100C00007107E9CECF70112329F08C2F0E9497072E
:100C10008D2F0ECF8D2F0E944A048C2F0E94B80773
:100C2000DACED23F51F160F4D03FB9F0D13F81F03C
:100C3000112309F449C0F11083CE8C2F8F7121C08C
:100C4000D33F11F1D43FA1F78091960282FF26C0D5
:100C50008C2F8F71112311F314C0112349F084E0FC
:100C60008F1508F4B8CE8C2F8F710E94DB07B3CE9E
:100C700095E09F1508F4AFCEF6CF8C2F8F71111130
:100C8000CDCF0E949707A7CE112329F08C2F8F710B
:100C90000E948207A0CE0E947D079DCE112349F0BD
:100CA000CF718C2F0E94970763E08C2F0E94250D37
:100CB00092CE81E00E94400DE1E0EF1508F08BCE6E
:100CC00082E00E94400D87CEF110DACE8C2F8F711A
:100CD000A5CF4C2F4F706D2FC6010E94060F0E94AA
:100CE000FA0879CE4C2F4F706D2FC6010E94090F64
:100CF00072CEDF91CF911F910F91FF90EF90DF9017
:100D0000CF90BF9008950F931F93CF93DF93EC0183
:100D1000688179818A810E94D6088C010E943208FC
:100D20000E943407B801CE01DF91CF911F910F913E
:100D30000C945104CF93DF93EC018B819C81892B20
:100D400029F08881998189238F3F59F4DF91CF91D0
:100D50000895CE010E948306CE01DF91CF910C94BD
:100D60006302CE010E948A028111F3CF0E94980C87
:100D7000882361F38A81882349F38091960282FD5A
:100D8000E5CF82E0DF91CF910C94400D90E080E0C0
:100D90000E94EE1D90E080E00E94041E0E94BF0CA5
:100DA0000E94CF0C0E94EF0C0E940A180C94E316CC
:100DB0000E94880C0C94C6060E94AF0C0C94D806B6
:100DC000E92FE295EF70E250EE3070F4F0E0E65279
:100DD000F94D0C945626803F19F020F4883E20F4FB
:100DE00081E00895843FE1F380E00895883EC0F3F8
:100DF000813FD1F7F5CF93FB882780F90895FC0157
:100E0000808191810E94CC080C94E006CF93DF93FF
:100E100000D000D00F92CDB7DEB70F900F900F909B
:100E20000F900F90DF91CF910895CF93DF9300D073
:100E300000D000D0CDB7DEB726960FB6F894DEBF4F
:100E40000FBECDBFDF91CF91089508950C94250773
:100E50000E9426076093E0017093E1018093E20114
:100E60009093E3010C94C60608950C9428070F9301
:100E70001F930091E0011091E1012091E201309176
:100E8000E301602B712B822B932B1F910F910C94FC
:100E900028070F931F930091E0011091E101209129
:100EA000E2013091E30160237123822393231F9198
:100EB0000F910C9428070F931F930091E00110915C
:100EC000E1012091E2013091E3016027712782273F
:100ED00093271F910F910C9428070C9425070C94CD
:100EE0006D070E946F076093DC017093DD018093B2
:100EF000DE019093DF010C94C60660E070E0CB0148
:100F00000C9471070F931F9341E050E060E070E094
:100F10008A019B0104C0000F111F221F331F8A95F5
:100F2000D2F7C901B8011F910F910C9471070F936B
:100F30001F9341E050E060E070E004C0440F551F93
:100F4000661F771F8A95D2F78091DC019091DD01B1
:100F5000A091DE01B091DF018A019B01082B192BC2
:100F60002A2B3B2BC901B8011F910F910C947107DB
:100F70000F931F9341E050E060E070E004C0440F25
:100F8000551F661F771F8A95D2F7CB01BA0160956E
:100F90007095809590950091DC011091DD01209174
:100FA000DE013091DF0160237123822393231F919F
:100FB0000F910C9471070F931F9341E050E060E094
:100FC00070E004C0440F551F661F771F8A95D2F743
:100FD0008091DC019091DD01A091DE01B091DF01F3
:100FE0008A019B01082719272A273B27C901B80135
:100FF0001F910F910C9471070F931F930091DC01C7
:101000001091DD012091DE013091DF01602B712B09
:10101000822B932B1F910F910C9471070F931F93A9
:101020000091DC011091DD012091DE013091DF01A2
:1010300060237123822393231F910F910C947107D6
:101040000F931F930091DC011091DD012091DE01CF
:101050003091DF0160277127822793271F910F911D
:101060000C9471070895E92FEE0FE90FEE0F8E0F24
:10107000982F977041E001C0440F9A95EAF7869542
:101080008695869595E0899FF0011124E155FE4FE4
:1010900030E020E070E05191DF011197CB01022E8A
:1010A00002C0969587950A94E2F78170819585270D
:1010B000842385278C932F5F3F4F2530310559F7C7
:1010C0000895E92FEE0FE90FEE0F8E0F982F97700E
:1010D00086958695869525E0829FF0011124E1553D
:1010E000FE4F50E040E080E0219130E0092E02C048
:1010F000369527950A94E2F721703327042E01C014
:10110000220F0A94EAF7822B4F5F5F4F453051055B
:1011100059F70895BF92CF92DF92EF92FF920F930B
:101120001F93CF93DF938C01C090DC01D090DD0141
:10113000E090DE01F090DF018091E0019091E1010B
:10114000A091E201B091E301C82AD92AEA2AFB2A38
:10115000CFE1D0E0BC2ED701C6010C2E04C0B6955D
:10116000A795979587950A94D2F780FD0EC0219791
:1011700088F7B12C8B2DDF91CF911F910F91FF90AC
:10118000EF90DF90CF90BF900895B8018C2F0E9410
:101190003910019761F3EECFCF93DF93EC010E94FA
:1011A0008A08BE01DF91CF910C9439101F93CF9321
:1011B000DF93EB019091AE01992331F0CB01DF91E8
:1011C000CF911F910C94CC08882379F0CB010E9419
:1011D0008A08182F682FCE010E943308BE01812F84
:1011E000DF91CF911F910C943910CB010E946108BF
:1011F000182FF4CFEF92FF920F931F93CF93DF93AB
:101200008C01892B81F0F12CEE24E394E8012196E6
:10121000F8018491843770F4843008F05FC0813025
:10122000B1F08230A1F1DF91CF911F910F91FF902A
:10123000EF900895853709F44CC008F43DC09CE751
:10124000980F903780F78F770E94CE0349C00E5FCA
:101250001F4FFE01849190E2980F983060F48770E0
:10126000FE2D01C0FF0F8A95EAF78F2F0E94C20C56
:101270000E94EF0C02C00E9437038F2D815030F284
:10128000EFE9FFE03197F1F700C00000F7CF0E5F04
:101290001F4FFE01849190E2980F983050F48770B0
:1012A000FE2D01C0FF0F8A95EAF78F2F0E94C80C10
:1012B000DFCF0E94CE03E1CF0E5F1F4FFE01C4912E
:1012C000C150D8F28FE99FE00197F1F700C000000C
:1012D000F7CF0E5F1F4FFE01F490CFCF0E94370370
:1012E0008E01CBCF1F93CF93DF93C091E40116E023
:1012F0008091E5018C1304C0DF91CF911F91089577
:10130000D0E01C9FF0011D9FF00D1124EA51FE4F0B
:101310004081518162817381848195810E9415078A
:101320002196C770E5CF4091160250911702609147
:1013300018027091190280911A0290911B020C946C
:1013400015072091E4019091E50156E0291302C0B0
:1013500080E0089530E0529FF001539FF00D11247A
:10136000EA51FE4F7181761306C07081781303C075
:101370007281741304C02F5F3F4F2770E7CF81E065
:101380000895FF920F931F93CF93DF9380911B02D9
:10139000807FD1F4809118028823B1F08091E4011C
:1013A0001091E5016091160270911702A091190247
:1013B000B0911A02062F0723C0910001D0910101BC
:1013C00096E0F92E181306C0DF91CF911F910F916F
:1013D000FF90089590E0109711F00F3F19F40196D7
:1013E0008770F0CFF89E9001F99E300D1124F9011D
:1013F000EA51FE4F41814713F2CF40814613EFCFB0
:1014000042814111ECCF438154814A1B5B0B4C1745
:101410005D0728F780911B028F70806180931B020B
:10142000F901E551FE4F80818F708061808386E1F4
:1014300092E00E949A06DF91CF911F910F91FF9049
:101440000C9472098F929F92AF92BF92CF92DF92CB
:10145000EF92FF920F931F93CF93DF93CDB7DEB739
:1014600061970FB6F894DEBF0FBECDBF8C0185E04B
:10147000F801DE011D9601900D928A95E1F7D801E1
:101480001296EC90129786E1A82E82E0B82E409139
:10149000190250911A024115510509F472C1909137
:1014A000160220911702892F82238F3F09F469C108
:1014B000CC901196DC90119713968D909C90149778
:1014C000F0901802B401641B750B4091000150911B
:1014D0000101FF2009F403C180911B02382F307FE6
:1014E0006417750708F0BDC0311188C0FE2CD212F8
:1014F00025C09C1123C0E11021C08F7080618093B2
:101500001B020E949309C5010E949A0680911B024A
:10151000F80185838F2D61960FB6F894DEBF0FBE5C
:10152000CDBFDF91CF911F910F91FF90EF90DF9092
:10153000CF90BF90AF909F908F90089581149104A9
:1015400029F08D2D8C218F3F09F037C180E080FF7D
:1015500015C04E2D6D2D8C2D0E94A109882371F090
:1015600086E192E00E949A0686E0E6E1F2E0DF0181
:101570001D928A95E9F70E9493093EC0892829F0B7
:101580008D2D8C218F3F09F015C180E0B82FB170EF
:10159000AB2E80FF29C04E2D6D2D8C2D0E94A109F0
:1015A000B82E811121C0CD86DE868D859E850E9454
:1015B000CC08292F22952F70223050F0243078F457
:1015C0009F7051F0F8019581907F31F4FB2CA2CFF0
:1015D0009F7011F08823D1F3805E8830B8F3C80182
:1015E0000E949A06BA2CF2CFEE2009F493CF809194
:1015F0001B02816080931B02F12C8CCFD21205C09C
:101600009C1103C0EE2009F487C0C8010E94FF06A8
:10161000882319F1EE2009F180911B02803270F0CD
:10162000209116023091170238872F8319869B86E6
:101630008A868C87CE0107960E949A0686E0F8017A
:10164000A6E1B2E001900D928A95E1F70E94C109EE
:101650000E949309FF24F3945DCFC8010E949A066B
:10166000F9CF311112C0782D998A888AA6016E2D82
:1016700089890E94060786E192E00E949A0686E028
:10168000F50111928A95E9F776CFD2120FC09C111D
:101690000DC0E1100BC015968C93C8010E949A06EC
:1016A00086E0F50111928A95E9F734CFC8010E94CE
:1016B000FF06882391F2EE2081F280911B02803296
:1016C00008F4BCCF20911602309117023A83298387
:1016D0001B829D828C828E83CE010196ADCF6417D2
:1016E000750708F040C0FE2CEE2009F4B6CFD212E8
:1016F0002CC09C112AC080911B0280FD1DC0982F18
:10170000907FD1F015968C931597903F39F0982FD4
:10171000907F905F8F70892B15968C93C8010E94E3
:101720009A0686E0F801A6E1B2E001900D928A9552
:10173000E1F70E949309EECE86E0F801A6E1B2E05F
:1017400001900D928A95E1F7E5CEC8010E94FF064F
:10175000811174CF80911B02816080931B02C801AC
:101760000E949A06D7CE782D998A888AA6016E2D76
:1017700089890E94060786E0F50111928A95E9F7AA
:10178000D8CFEE2009F469CFC8010E94FF06F82ED9
:10179000882309F462CF86E0F801A6E1B2E0019067
:1017A0000D928A95E1F786E192E00E9432030E9451
:1017B000C109BFCF81E08E25E9CE81E08E25C7CE5D
:1017C0001F93CF93DF93CDB7DEB72C970FB6F89466
:1017D000DEBF0FBECDBF4F83588769877A878B875F
:1017E0009C87CE0107960E94220A882369F08A8589
:1017F0009B85892B39F04F815885842F85238F3F16
:1018000009F071C016E05FC086E0FE013796DE0188
:10181000119601900D928A95E1F78A859B85892B17
:1018200089F38F81988589238F3F61F32091E501AA
:1018300030E0C9010196877099274091E40148176B
:10184000190671F40E94DC061092E5011092E40181
:1018500086E0E6E1F2E0DF011D928A95E9F7D2CF5A
:1018600096E0929FD001939FB00D1124AA51BE4FD4
:10187000FE01319601900D929A95E1F78093E50172
:101880000E947209BFCF819FC00111248A519E4FCF
:101890000E94220A8823E9F0E091E4011E9FF001F2
:1018A0001124EA51FE4F408151816281738184810C
:1018B00095810E9415078091E40190E00196877060
:1018C00099278093E4018091E4019091E5018913C7
:1018D000DACF2C960FB6F894DEBF0FBECDBFDF91E6
:1018E000CF911F91089569857A858B859C850E948B
:1018F000150788CF682F80910201909103010C9405
:10190000621E682F80910201909103010C94641E65
:1019100080910201909103010C94661E80911C023B
:10192000859585958595089580911C028770089509
:1019300090911C02977081E009F480E008958091F5
:101940002802089590912802892B809328020895F7
:1019500080959091280298239093280208951092E0
:101960002802089590912702892B809327020895D9
:1019700080959091270298239093270208951092C2
:101980002702089590912602892B809326020895BC
:1019900080959091260298239093260208951092A4
:1019A0002602089580911D02089508950C94D50C87
:1019B0009091960292FD08C090911D02981721F017
:1019C00080931D020C94D60C089580911D028823EB
:1019D00029F010921D0280E00C94D60C0895E0913D
:1019E0000201F0910301809128028083E0910201BD
:1019F000F0910301808190912702892B8083E091EF
:101A00000201F0910301808190912602892B80834D
:101A100090911D02992381F0E0910201F091030160
:101A20008081892B808380910201909103010E9423
:101A30001A1E81110E94E50C809102019091030110
:101A40000C94D51D08950C94220D9091960292FD50
:101A500010C098E0899F90011124622B60931C02B2
:101A60000E94970780911C028595859585950C9419
:101A7000230D0C94970710921C0280E00C94230D08
:101A800090911C028095892380931C02282F277037
:101A900091F4282F082E000C330B9217130659F0DF
:101AA0009091960292FD07C08595859585950E9437
:101AB000B8070C943B0D08959091960292FB222753
:101AC00020F9281769F080FB92F990939602809193
:101AD0009502909196020E94A10D82E00C94400D17
:101AE00008958091960282FB882780F991E08927EA
:101AF0000C945C0D81E00C945C0D80E00C945C0D0A
:101B000090E080E00E948E2621E0893E9E4F09F001
:101B100020E0822F089582E090E00C94862683E0F6
:101B200090E00C948626CF9384E090E00E94862675
:101B3000C82F82E290E00E948626982F8C2FCF91AA
:101B40000895CF93C92F682F84E090E00E949426D7
:101B50006C2F82E290E0CF910C949426AB01BC01F3
:101B60008FE090E00C94A626AB01BC0183E190E0ED
:101B70000C94A62660E070E0CB010C94B40D60E0FC
:101B800070E0CB010E94AE0D0C94BA0D69EE7EEFB1
:101B900090E080E00E94B22660E082E090E00E9447
:101BA000942660E083E090E00E9494261092E00189
:101BB0001092E1011092E2011092E30160E084E0F2
:101BC00090E00E94942660E082E290E00E949426D9
:101BD00060E085E090E00E94942660E086E090E07E
:101BE0000E9494266FEF87E090E00E94942640E0E8
:101BF00050E0BA0188E090E00E94A62660E08DE007
:101C000090E00E94942640E050E0BA0188E190E024
:101C10000E94A62660E087E190E00E94942640E0C2
:101C200050E0BA018CE190E00E94A62670E060E0EE
:101C300080E290E00E94B22640E050E0BA0188E1E4
:101C400090E00E94A6260C94BF0D0C94C60D682F40
:101C50008EE090E00C9494260E94091F60933A0253
:101C600070933B0280933C0290933D026093360256
:101C7000709337028093380290933902089585B7A4
:101C8000806885BF85B7806885BF089508950895E9
:101C90000C94460E08950C944A0E0E943F0E88E55F
:101CA00091E10E94B81D0E94470E0C94480E0C94BE
:101CB0004713089508950E94590E0C945A0E0E94DD
:101CC000F41E0E9417110E942E120E9418180C94E4
:101CD0004B0EAF92BF92CF92DF92EF92FF920F9393
:101CE0001F93CF93DF93CDB7DEB72A970FB6F89443
:101CF000DEBF0FBECDBF0E94BD1281110E942C0E0F
:101D00008AE2A82E82E0B82E10E000E0C02E802FDC
:101D10000E948511E82EF501F1905F01F81609F493
:101D20004DC080913E0281FD0E948B118F2D8E252A
:101D3000D12CFF24F394982F9F21D9F10E94570EA4
:101D4000882399F0DE82CF82EF2081E009F480E0E1
:101D500088870E94FD1E8160782F9A8789874E812F
:101D60005F8168858A850E94F402F801E65DFD4F77
:101D70008081F826F0820E94FE160E94C21D90917A
:101D80002902891791F10E94C21D809329022A9687
:101D90000FB6F894DEBF0FBECDBFDF91CF911F917C
:101DA0000F91FF90EF90DF90CF90BF90AF900C9489
:101DB000EC02D394FF0CF6E0DF12BDCF0F5F1F4F94
:101DC0000C30110509F0A2CF8FEF89838A831B8223
:101DD0000E94FD1E8160782F9D838C8349815A81EA
:101DE0006B818D810E94F402C6CF2A960FB6F894BB
:101DF000DEBF0FBECDBFDF91CF911F910F91FF903E
:101E0000EF90DF90CF90BF90AF90089590E080E08A
:101E100008950895972F70E026E0929F600D711D40
:101E20001124FB0198E4899FE00DF11D1124EE0FB0
:101E3000FF1FE455FF4F859194910895FC01EE0F2B
:101E4000FF1FE45AFD4F859194910895CF93DF933E
:101E50000E943D10EC01811520E5920708F042C078
:101E6000811530E4930708F0BDC0883E910528F540
:101E7000803E910508F09DC0883A910588F4853A26
:101E8000910508F08FC08130910509F492C0009748
:101E900009F48FC0049708F08CC0D0E0C0E089C07E
:101EA0008F3B910508F489C0805C9109C03CD10545
:101EB000A0F30E941E0FEC017CC08115904250F4EB
:101EC000C11581E0D80708F074C0CD3ED10528F3D4
:101ED000D0656FC0C11590E3D90708F079C0CE0175
:101EE0009F70E7CF811525E5920758F5811534E5F8
:101EF000930708F0A6C0811542E5940750F4C11578
:101F000081E5D80708F471C0DC2FCC27C16FD06AF7
:101F100050C0982F969596959E0123703327C11532
:101F2000D34508F07FC0C1E0D0E002C0CC0FDD1F78
:101F30002A95E2F720E2929FC0011124C82BD92BE9
:101F40006FC0C11589E5D807A8F4C11598E5D90770
:101F500008F07CC0C11526E5D20708F09ECF8C2F73
:101F60000E94D410C82FD0E0DC2FCC27CC27DF7103
:101F7000D0621FC0C1153AE5D30708F46CC0CE018A
:101F800090568115904208F088CF8D2F8F710E9456
:101F9000D41090E0982F882788279F719C012C2BC4
:101FA000E901E6CFC55AD0E0CB56DE4FC881D0E07C
:101FB000D064CE01DF91CF910895C85AD0E0CC0F04
:101FC000DD1FC959DE4F0990D881C02DD464F1CFEF
:101FD000CE019927D3FF03C0EC01D86CEACFEC0106
:101FE000D06CE7CFDF70D06AE4CFCE01E4E0969505
:101FF0008795EA95E1F783702C2F26952695237017
:1020000090E2299F90011124382B8C2F8370C1E01E
:10201000D0E002C0CC0FDD1F8A95E2F7C22BD32B94
:10202000DC68C7CFC1E0D0E002C0CC0FDD1F2A952D
:10203000E2F730E2939FC0011124C82BD92BDA6854
:10204000B8CFD82FCC27C46FD06AB3CFDC2FCC2722
:10205000C06FD06AAECF8C2F8F700E94D41034E046
:10206000D695C7953A95E1F7CF709C2FEC01D069D2
:10207000A0CF0E940A0F0C94260F82389105B1F16F
:10208000B0F48133910509F475C048F489329105A3
:1020900009F469C08A32910509F473C00895853343
:1020A000910509F459C08933910501F10895833EE2
:1020B0009105A9F138F4803E9105F9F0823E910531
:1020C00049F10895863E9105A9F1873E9105C9F130
:1020D000843E910519F52091960221FF1FC0809141
:1020E000950284FD14C087EE90E00895209195023A
:1020F0002370A1F080EE90E008952091950220FDDC
:1021000047C03091960230FF09C024FF44C090E0E0
:1021100080E004C02091950222FDF7CF0895209120
:10212000950222FD3BC03091960230FDE3CF24FFA3
:10213000F5CFEDCF2091950223FFF0CF24FDE7CF1F
:10214000D2CF2091950223FD2CC03091960231FF11
:10215000EECF84EE90E008952091950225FFDECF2A
:1021600089E290E008952091950225FFD7CF85E37D
:1021700090E008952091950226FFD0CF8AE290E06A
:1021800008952091950226FFC9CF81E390E008953C
:1021900089E390E0089583EE90E0089582EE90E068
:1021A000089586EE90E008959091950292FF06C002
:1021B000282F28712830F9F4877F846093FF06C0A8
:1021C000282F28712831F1F4877E846120919602AE
:1021D00020FF06C0382F38713830D9F4877F8160EE
:1021E00021FF06C0282F28712831D1F4877E816114
:1021F00094FD877E0895282F24712430F9F68B7F73
:102200008860DCCF282F2471243101F78B7E886110
:10221000DDCF382F3171313019F78E7F8860E0CFF4
:10222000282F2171213121F78E7E8861E1CF109214
:1022300091021092920210929302109294020895C9
:10224000CF92DF92EF92FF926B017C010E944713C5
:1022500081110EC00E94091FC61AD70AE80AF90A9E
:10226000C0929102D0929202E0929302F092940274
:10227000FF90EF90DF90CF9008950F931F930E94EF
:102280004713882321F01F910F910C94091F0E947E
:10229000091F0091910210919202209193023091B6
:1022A0009402600F711F821F931F1F910F91089559
:1022B00080E0089508950E94800D811102C00E945F
:1022C000250E0E948B0D80933E020E94930D9093E9
:1022D0009602809395020E945A110E948F0D682FDA
:1022E00070E090E080E00E9435076091DC01709121
:1022F000DD018091DE019091DF010C946F0708955C
:102300000C947F1108950C948211E82FF0E0ED55A4
:10231000FD4F80810895089580EA8A95F1F7089528
:1023200000C008950C948C11F894E82FE295EF709A
:10233000F0E031A1282F2F7081E090E001C0880FDC
:102340002A95EAF7982F9095932391A392A1892B30
:1023500082A37894089508950C94AB11CF93DF93E2
:10236000CEE9D1E089918F3F11F00E94941181E074
:10237000C43AD807B9F7C8E9D1E089918F3F11F085
:102380000E94941181E0CE39D807B9F7DF91CF913F
:102390000895CF92DF92EF92FF920F931F93CF9306
:1023A000DF93EC01D62E062F10E0C80182569E4F17
:1023B0007C01FC0180818F3F09F445C0F894E82F2F
:1023C000E295EF70F0E091A18F7021E030E001C064
:1023D000220F8A95EAF7892F822B81A382A120956B
:1023E000282322A378940E949011E8E9F1E04EE9B5
:1023F00051E031E0C12C21912F3F71F1A22FA29524
:10240000AF70B0E090968C9190E02F7002C09595DF
:1024100087952A95E2F780FD1FC0832FC82A330FC6
:102420004E175F0741F7F70180818F3F11F00E943F
:10243000941161E0C11001C060E08D2D0E949211E5
:10244000C00FD11FC882DF91CF911F910F91FF90D4
:10245000EF90DF90CF90089580E0E0CF0E9461136D
:10246000809104018091040196E0811190E09093A5
:10247000B00286E0891B8093AF020E94AE118CE00F
:10248000E3EAF2E0DF01982F1D929A95E9F7E7E978
:10249000F2E0DF011D928A95E9F786E00E941013B1
:1024A0000E946E020C946B13EF92FF920F931F9396
:1024B000CF93DF9300D000D000D0CDB7DEB70E941D
:1024C0004713F82E6091B002882309F449C086E0D2
:1024D000E82E8E010F5F1F4FF8018E2D11928A9505
:1024E000E9F7862F90E0B8018D559D4F0E94791332
:1024F000882301F18091AF0290E046E050E0B801FE
:102500008D559D4F0E94702621E020933F02892B1C
:10251000D9F4F12C0E9474028F2D26960FB6F894F0
:10252000DEBF0FBECDBFDF91CF911F910F91FF9006
:10253000EF90089580913F02882359F3F80111929A
:10254000EA94E9F710923F02A091AF02B0E0AD55D6
:10255000BD4F86E0F80101900D928A95E1F7DACF40
:1025600070E06D557D4F8091AF0290E08D559D4F8D
:102570000E9406140E94AC11CFCFEF92FF920F93EE
:102580001F93CF93DF93CDB7DEB72C970FB6F89498
:10259000DEBF0FBECDBF8E010F5F1F4F8CE0F80175
:1025A00011928A95E9F7F12C6F2DC8010E94C9118B
:1025B000F394F6E0FF12F8CF4CE050E0B80187E961
:1025C00092E00E9470267C0121E0892B09F420E032
:1025D000E114F10441F08CE0F801A7E9B2E00190C8
:1025E0000D928A95E1F76091B00270E06D557D4FD4
:1025F00046E087E992E00E94111381E090E0EF2825
:1026000011F40E9454122C960FB6F894DEBF0FBE40
:10261000CDBFDF91CF911F910F91FF90EF90089563
:102620000895FF920F931F93CF93DF93F82E092FF6
:10263000162FD72FC42F222349F081E08093420226
:102640000E94FD1E909341028093400280914202BD
:102650008823A1F080914002909141020E94151FB1
:10266000059760F0EF2DF02FA12FBD2FCE0FDF2F9C
:10267000D11DEC17FD0741F410924202DF91CF917A
:102680001F910F91FF90089581918D93F2CF8091CA
:102690004502811107C00E943526882351F081E050
:1026A0008093450281E090914502913009F080E0ED
:1026B000089582E0809345020E943026F3CF0C9467
:1026C00047130E945F13809304010E9447138111F6
:1026D0000C94AF1308950E944713811102C00C940B
:1026E000B113089581E0909146029A3008F080E09D
:1026F00008950F931F93CF93DF93EC018B0180918B
:1027000046028A30B8F4B801CE010E940414C82FE2
:10271000811122C0809146028F3FB9F40E94FD1EB4
:1027200090934402809343028C2FDF91CF911F91AD
:102730000F91089580914302909144020E94151FC9
:10274000843F914000F7C0E0EFCF8F5F8093460257
:102750008A3020F7C1E0E8CF10924602E5CF0C9412
:10276000F71B0C94FA1BEF92FF920F931F93CF93DA
:10277000DF937901C82F880FDD0B41155105A9F0B2
:102780008AE08C9FF0018D9FF00D1124EB5FFE4FCE
:1027900083819481895B9D4F228130E042175307EA
:1027A00008F49A01A9010E947D26CE010E94041D11
:1027B000892B11F501151105E9F08AE08C9FF001D4
:1027C0008D9FF00D1124EB5FFE4F458150E0041703
:1027D000150708F4A8018AE08C9FF0018D9FF00D89
:1027E0001124EB5FFE4F66817781695B7D4FC701E6
:1027F0000E947D2681E001C080E0DF91CF911F9192
:102800000F91FF90EF9008950C941E150C943A15BB
:102810000F931F93CF93DF9300D000D0CDB7DEB7D7
:1028200060916002709161028091620290916302F6
:102830000E94241F11E0643671058105910518F18D
:102840000E943D116E5F7F4F8F4F9F4F69837A8348
:102850008B839C8310E000E030E020E044E050E017
:10286000BE016F5F7F4F82E00E94B313182F882351
:1028700051F00E94091F609360027093610280937F
:10288000620290936302812F0F900F900F900F9030
:10289000DF91CF911F910F910895AF92BF92CF9288
:1028A000DF92EF92FF920F931F93CF93DF9300D0AD
:1028B00000D000D00F92CDB7DEB77B01C090AA0147
:1028C000D090AB0101E010E09E01295F3F4F50E046
:1028D00040E070E060E080E00E94B313182F88238E
:1028E00009F448C056018FEFA81AB80A60915C023B
:1028F00070915D0280915E0290915F020E94241FA0
:10290000643671058105910568F106E010E09E01CD
:102910002F5F3F4F50E040E070E060E081E00E94B8
:10292000B313D82E66E070E0C5010E94191811E0BB
:102930009F81981310E01D2141F10E94091F6093AF
:102940005C0270935D0280935E0290935F0286E06A
:10295000FE013196A6E5B2E001900D928A95E1F76D
:1029600011E013C066E070E0C5010E9419189F8154
:102970008913CBCF86E0F6013196DE0111960190E6
:102980000D928A95E1F71111E2CF86E0E6E5F2E0DB
:10299000D70101900D928A95E1F7812F27960FB606
:1029A000F894DEBF0FBECDBFDF91CF911F910F9185
:1029B000FF90EF90DF90CF90BF90AF900895AF92CF
:1029C000BF92CF92DF92EF92FF920F931F93CF931C
:1029D000DF937C015B016A010E94721301E010E049
:1029E000882311F00AE010E0C1E0D0E0F894B501CE
:1029F000C701F60109957894811104C021960C173E
:102A00001D075CF4DF91CF911F910F91FF90EF9024
:102A1000DF90CF90BF90AF900895CC9F9001CD9F55
:102A2000300D300D112490E080E045E34A95F1F738
:102A30000000019682179307C1F7D8CF0F931F9319
:102A4000CF93DF93EC018B014DE454E10E94DF143E
:102A5000882351F048E054E1B801CE01DF91CF91D5
:102A60001F910F910C94DF1480E0DF91CF911F91A3
:102A70000F9108950F931F93CF93DF93F894C09114
:102A8000AA01D091AB01CE01019626E0FB01DC0149
:102A900001900D922A95E1F766E070E00E94191806
:102AA00088837894F8946F81788589859A850091D8
:102AB0005202109153022091540230915502601736
:102AC00071078207930751F060935202709353028B
:102AD00080935402909355020E9420117894DF91C4
:102AE000CF911F910F9108950E9404210E945F0EC3
:102AF0000C9410210E9414210E94690E0C942E2126
:102B00000E94871E0E94EB200E944D0E0E947415A9
:102B10000E947A150E945B0EFBCF80916C0280FFB1
:102B200012C06091270185E0689FB001112475955E
:102B300067957595679560387105A8F561157105FC
:102B4000A1F1862F089581FF09C06091270185E0DA
:102B5000689FB001112475956795EDCF60912701AD
:102B600082FD0AC080916B028823D1F090912601EA
:102B700060912701891728F085E0689FB001112432
:102B8000DACF869FB001112485E0869F9001879F50
:102B9000300D1124692F70E0C9010E944226CBCF6D
:102BA00065E070E0CECF8FE7089581E008958091D1
:102BB0006C0280FF0CC06091240170E075956795F0
:102BC000759567956115710549F1862F089581FF07
:102BD00006C06091240170E075956795F3CF609110
:102BE000240182FD0BC090916A029923A1F06091AB
:102BF000230180912401961738F0682F70E0603827
:102C0000710500F38FE70895899FC001112470E0DA
:102C10000E944226F4CF61E070E0D7CF81E00895B2
:102C20008D3E31F40E948D15819580937002089538
:102C30008E3E19F40E948D15F8CF8F3E31F40E941C
:102C40008D15819580936F020895803F19F40E943D
:102C50008D15F8CF893F29F40E94D7158093710212
:102C600008958A3F21F40E94D7158195F7CF8B3FB5
:102C700031F40E94D71581958093720208958C3F9C
:102C800019F40E94D715F8CF9FE0980F983070F490
:102C9000815F990B21E030E001C0220F8A95EAF7AD
:102CA00080916E02822B80936E0208958D3F31F4E5
:102CB00080916C02816080936C0208958E3F21F4B4
:102CC00080916C028260F7CF8F3FB9F780916C02E0
:102CD0008460F1CF40916F028D3E59F48091700273
:102CE00087FF0DC01092700241110BC010926B0251
:102CF00008C08E3E81F48091700218169CF3442324
:102D000081F08091710290917202892B09F05AC072
:102D100010926A0208958F3E49F447FFF0CF109257
:102D20006F02809170028111ECCFE0CF803F19F4E7
:102D30001416ACF3E4CF90917102893F29F419166F
:102D4000F4F610927102DBCF8A3F19F497FFD7CFC8
:102D5000F8CF909172028B3F29F497FFD0CF109259
:102D60007202CDCF8C3F19F41916CCF3C8CF9FE077
:102D7000980F983090F4815F990B21E030E0B90111
:102D800002C0660F771F8A95E2F7CB01809590917C
:102D90006E02892380936E02B2CF8D3F31F4809111
:102DA0006C028E7F80936C02AACF8E3F21F48091BB
:102DB0006C028D7FF7CF8F3F09F0A1CF80916C021D
:102DC0008B7FF0CF08950E94FD1E9C0190916F02B1
:102DD00080917002982B21F0309369022093680251
:102DE0009091710280917202982B21F030936702CA
:102DF000209366028DE692E00C94E01DEF92FF9224
:102E00000F931F93CF93DF9300D000D000D0CDB7A6
:102E1000DEB786E0EDE6F2E0DE01119601900D925C
:102E20008A95E1F7E0906F02F090700200917102D4
:102E30001091720210926F02109270021092710241
:102E4000109272028E2D8F2991F0809168029091DC
:102E500069020E94151FAC0190916B02992309F43D
:102E60003FC0809128018417150608F447C0802FC1
:102E7000812B91F080916602909167020E94151F4C
:102E8000AC0190916A02992309F477C080912501E1
:102E90008417150608F47FC080916F02909170022C
:102EA000892B90917102892B90917202892B11F0DC
:102EB0000E94E31686E0FE013196ADE6B2E0019095
:102EC0000D928A95E1F726960FB6F894DEBF0FBEF5
:102ED000CDBFDF91CF911F910F91FF90EF9008959B
:102EE000209165028AE0289F90011124241735075C
:102EF00008F0BDCF9F5F90936B0202C09F3FD1F758
:102F0000EE2059F00E948D159FEF1E140CF491E0F5
:102F1000899F802D112480936F02FF2059F00E9419
:102F20008D159FEF1F140CF491E0899F802D1124C3
:102F30008093700230916F02332309F498CF20916F
:102F40007002222309F493CF45EB3403C00111240E
:102F5000992359F090936F0245EB240390011124BB
:102F6000332339F03093700282CF81E080936F0277
:102F7000F3CF81E0809370027ACF209164028AE0DF
:102F8000289F900111242417350708F085CF9F5FF3
:102F900090936A0202C09F3FD1F7002359F00E942C
:102FA000D7159FEF10160CF491E0899F802D112406
:102FB00080937102112359F00E94D7159FEF1116CB
:102FC0000CF491E0899F802D11248093720230913E
:102FD0007102332309F460CF20917202222309F495
:102FE0005BCF45EB3403C0011124992359F0909332
:102FF000710245EB240390011124332339F03093FF
:1030000072024ACF81E080937102F3CF81E0809316
:10301000720242CF86E0EDE6F2E0DF011D928A9572
:10302000E9F710926B0210926A0210926C020895F6
:103030000895FC01680F791F8FEF91E36E177F07EA
:1030400009F408952191822728E030E087FF06C027
:10305000880F892721503109C9F7F0CF880FFACF9F
:10306000CF93DF93EC01FB018281882309F420C117
:10307000C430FDE5DF07C8F5CB3F9CE5D90730F448
:103080009E0122503C452431310598F50E94930D54
:103090009093960280939502C031FCE5DF0709F416
:1030A000E0C008F061C0C8309CE5D90709F4CBC086
:1030B00088F5C430FCE5DF0709F4B3C0E8F4C2309A
:1030C0009CE5D90709F4A7C0809195028260C330BE
:1030D000DC4509F4A3C080919502909196020E946C
:1030E000A10D0E94DC0680E004C0C236EDE5DE07DB
:1030F00069F2DF91CF910895809195028061C63089
:10310000FCE5DF0709F48AC008F48FC080919502BE
:10311000806284C0809195028D7FCC309CE5D90778
:1031200009F47CC070F4809195028C60CA30FCE593
:10313000DF0709F473C008F48AC0809195028E7F7E
:103140006DC080919502877FCE309CE5D90709F448
:1031500065C0809195028B7FCF30DC4508F45EC05E
:10316000809195028F7E5AC0CD3FFCE5DF0709F4C0
:1031700074C040F5C4319CE5D90709F48AC058F4FD
:10318000C231FCE5DF0709F474C008F46EC0809119
:103190009502837F43C0CB3F9CE5D90709F449C022
:1031A00008F04DC0C531DC4509F095CF80919502FE
:1031B00082FB992790F921E0922790FB82F990FBFE
:1031C00083F92CC0C1308DE5D80709F458C088F4C4
:1031D000809196028360CF3FECE5DE0769F1809134
:1031E00096028D7FC115DD4538F1809196028C7F66
:1031F00023C0C3308DE5D80709F458C008F452C085
:10320000C236DD4509F067CF90919502892F8F7EF8
:1032100094FF806103C08091950281608093950244
:103220005ACF809195028460F9CF80919502886091
:10323000F5CF809196028160809396024CCF809169
:1032400096028260F9CF809195028064E7CF0E9458
:10325000DC06809195028068E1CF809196028E7F96
:10326000EBCF809195028F7DD9CF809195028F7B96
:10327000D5CF0E94DC06809195028F77CFCF8091C9
:103280009602982F909591708E7F892B90FB81F9F3
:10329000D3CF0E94DC0690919502892F97FB87F986
:1032A0008058BCCF81E00E94270E15CF80E0FBCF75
:1032B00081E01FCF0F931F9341E050E060E070E08A
:1032C0008A019B0104C0000F111F221F331F8A9522
:1032D000D2F7C901B8010E9435071F910F910C94D4
:1032E000DC068B3109F461C040F58B3071F078F465
:1032F000863009F443C020F4853059F180E0089508
:10330000873009F444C08830C9F781E008958031DE
:1033100009F459C068F48E3089F790913E02892FE4
:103320008B7F92FF846080933E0282FD48C0EDCF88
:10333000863159F3893149F3E1CF8A32E1F060F403
:103340008732A9F020F48E31C8F28D5111C0893234
:10335000A9F60E947B02D9CF833438F48A33F0F582
:10336000853329F0883389F2C9CF833439F680E078
:103370000E945A19CACF0E94250EC7CF80913E02E3
:10338000807F80933E0281E0809376020895909141
:103390003E02892F8E7F90FF816080933E0280FDE8
:1033A000B4CF817F80933E02B0CF90913E02892FAF
:1033B0008D7F91FF826080933E0281FFA6CF809136
:1033C0003E028160EFCF90913E02892F877F93FF6D
:1033D000886080933E0283FDF2CF97CF8953C8CF98
:1033E00080E008950C94F019CF93C82F8091760255
:1033F0008130B9F0882331F08230A1F11092760249
:1034000080E00DC00E949F0C8232D1F78C2F0E9469
:10341000F01981111BC08C2F0E9471198170CF91FE
:1034200008950E949F0C823289F38C2F0E94F2191A
:1034300081110AC0C43199F060F4CB3029F0C03159
:1034400069F782E08093760281E0E8CF81E090E046
:10345000E5CFC93221F0C833B9F380E0DFCF109255
:103460007602FBCFC93209F43FC0E8F4C431E1F180
:1034700028F4C73009F45BC081E0D1CF82EE8C0F15
:103480008A30D0F7CD51C0937502C33009F446C0DD
:10349000B0F5C13009F43FC088E291E0C230B1F12B
:1034A00010927502E9CFC03509F452C0B8F48AE031
:1034B000CF3411F7E0917302F09174023097E1F28A
:1034C0002081082E000C990B820F911D8F3F9105D2
:1034D00009F00CF441C08FEF8083CECFC135D1F11C
:1034E00081E0C23539F39BCF80917502882321F2A8
:1034F000109275021092740210927302BDCFC53003
:1035000099F078F083E291E0C63051F6909374021E
:1035100080937302B1CF85E692E0F8CF87E291E025
:10352000F5CF86E291E0F2CF84E291E0EFCF109206
:10353000650284E180932801C09327018CE3809386
:10354000260188E08093240188E28093230194CFB0
:1035500086EFB0CF8FEFAECF97FFBECF10828CCF6C
:10356000CF93DF93EB0186319C4511F50E949F0CB0
:103570009A81992399F08A7A91E009F490E09093E6
:103580007702811109C089E20E947A0C0E94EF0C37
:1035900080E0DF91CF91089585E3F6CF80917702A7
:1035A000811104C089E20E94810CF0CF85E3FBCF3A
:1035B00081E0EFCF0F931F93CF93DF93C42FD22FD0
:1035C000FC0182818823C9F040937A020E94FD1E8B
:1035D000909379028093780280E28C0F883008F013
:1035E00050C0C77081E001C0880FCA95EAF7DF912B
:1035F000CF911F910F910C94430410917A021413F0
:1036000035C080917802909179020E94151F883C04
:10361000910560F5C0E2CD0F1D17B9F080E2810F72
:10362000883040F4177081E001C0880F1A95EAF7DE
:103630000E944A04C83048F481E09D2F977001C071
:10364000880F9A95EAF70E944304802F0E943B045A
:10365000C830B8F4D77081E001C0880FDA95EAF776
:10366000DF91CF911F910F910C944A0480E28C0F4F
:10367000883038F4C77081E001C0880FCA95EAF736
:10368000EFCFDF91CF911F910F9108950F939C0180
:10369000CB01243F4CE5340759F1A8F4293DFCE562
:1036A0003F0701F12A3D4CE53407D1F1283D3C4567
:1036B00091F406E221EE41EE68ED7CE50E94DA1A13
:1036C00080E00F910895263FFCE53F07E9F0B0F058
:1036D000273F3C45F9F0FC018281882339F11092A3
:1036E0007A02EFCF07E225EE45EE69ED7CE5E6CF05
:1036F00006E221EE40EE64EF7CE5E0CF07E225EE46
:1037000044EE65EF7CE5DACF06E221EE42EE66EFAD
:103710007CE5D4CF07E225EE46EE67EF7CE5CECF21
:1037200008E221E045EE6AED7CE5C8CF81E0C9CF33
:103730008EE1489B02C08150E1F7489BFECF08957F
:10374000589880E28A95F1F7589A0895FC013BE079
:103750003A95F1F798E020E080E031E040E14A95C9
:10376000F1F7880F489B02C08160232742E04A9509
:10377000F1F7000040E14A95F1F7915079F790E1B7
:103780009A95F1F799B132E03A95F1F7000040E1EE
:103790004A95F1F7917092272081920F90830895B6
:1037A000EF92FF920F931F93CF93DF930F92CDB7BA
:1037B000DEB719828C017C01E60EF11C0E151F0587
:1037C00061F481E09981911180E00F90DF91CF91B8
:1037D0001F910F91FF90EF9008950E94981BCE01CA
:1037E00001960E94A61BF80181938F01E7CF509AA2
:1037F000589A08955098589AE89AE9E6F0E080813E
:103800008C7F808308956150770B91E001C0990F00
:103810006A95EAF720E031E0911108C0222391F087
:10382000589A80E28A95F1F758980895492F4823CD
:1038300039F0589A232740E24A95F1F79695ECCF54
:103840005898F9CF5898EDCFFF920F931F93CF93CD
:10385000DF93EC018C01060F111DC017D10731F465
:10386000DF91CF911F910F91FF900895F9900E94E1
:10387000A01B68E08F2D0E94031CEFCF1F920F92B8
:103880000FB60F921124EF92FF920F931F932F9375
:103890003F934F935F936F937F938F939F93AF93D8
:1038A000BF93EF93FF93CF93DF930F92CDB7DEB724
:1038B00019820E94981BCE0101960E94A61BA82F78
:1038C000A695A695A695282F229525709A2F9570D6
:1038D000290F922F937026952695920F982797700F
:1038E0008981982B09F075C0A43008F072C080E17E
:1038F0008A95F1F7589A509AB2E0BA95F1F700C05C
:103900005898EA2EF12CEAE0AE9FD0011124AB5F6B
:10391000BE4F1896ED91FC9119973097B1F06091D8
:10392000AA017091AB0116962D913C911797260F25
:10393000371F13968D919C911497680F791F1596D8
:103940004C91159712968C9109958AE08E9DF00105
:103950008F9DF00D1124EB5FFE4F6581662351F0C2
:103960002091AA013091AB0186819781820F931F2C
:103970000E94241C0E94A01BF0E1FA95F1F75898D0
:103980005098589A80E18A95F1F78AE08E9D8001DF
:103990008F9D100D11240B5F1E4FD80112966C9154
:1039A0001297662371F12091AA013091AB01139611
:1039B0008D919C91820F931F0E94D01BD801ED9195
:1039C000FC91882311F088E001C082E080830E948E
:1039D000981B0F90DF91CF91FF91EF91BF91AF9125
:1039E0009F918F917F916F915F914F913F912F9117
:1039F0001F910F91FF90EF900F900FBE0F901F90AF
:103A00001895ED91FC91DFCF0F931F93CF93DF9328
:103A1000EC0104970CF0A9C08AE08C9FF0018D9F07
:103A2000F00D1124EB5FFE4F80819181892B09F409
:103A30009CC0F894509A589885E08A95F1F7000058
:103A40008C2F869585709C2F9570890F982F937079
:103A500086958695890F8E0193E0000F111F9A9528
:103A6000E1F7082B0E94A01B00C068E0802F0E9495
:103A7000031CA0E1AA95F1F75098589A489B27C0DB
:103A800087E090E0489925C08AE08C9F80018D9F57
:103A9000100D11240B5F1E4FF80165816623A1F103
:103AA0002091AA013091AB0186819781820F931FEB
:103AB0000E94D01B811128C0509A589AD801ED91CC
:103AC000FC9182E08083789482E090E016C000C090
:103AD000D5CF0197B9F4509A589A8AE08C9FF0019B
:103AE0008D9FF00D1124EB5FFE4F0190F081E02DD2
:103AF00081E08083789481E090E0DF91CF911F9105
:103B00000F91089500C0BECF0E94981BB0E2BA95F5
:103B1000F1F75898509AE0E1EA95F1F78AE08C9F26
:103B2000F0018D9FF00D1124EB5FFE4F6281662343
:103B300051F02091AA013091AB0183819481820FD1
:103B4000931F0E94241C0E94A01B8AE08C9FF001FE
:103B50008D9FF00D1124EB5FFE4F0190F081E02D61
:103B60001082789490E080E0C8CF84E090E0C5CFE8
:103B70009093AD018093AC0108959093810280935E
:103B8000800208950E944713811103C080917B0237
:103B90000895E0918002F0918102309721F0019028
:103BA000F081E02D099480E00895E0918002F09189
:103BB0008102309721F00280F381E02D099408956D
:103BC000E0918002F0918102309739F022E0DC012F
:103BD0002C930480F581E02D0994089520917E02B4
:103BE00030917F022817390771F090937F028093FC
:103BF0007E02E0918002F0918102309721F00680F0
:103C0000F781E02D0994089520917C0230917D0286
:103C10002817390771F090937D0280937C02E09120
:103C20008002F0918102309721F00084F185E02D2F
:103C3000099408959C012E5F3F4FAC01485F5F4F90
:103C400080E02417350709F40895F90191919F0147
:103C50009923B9F38F5FF5CF662349F0FC013296C3
:103C600008962191261729F0E817F907D1F780E087
:103C7000089581E008959C01FC0132969FEF80E059
:103C80004191461751F09F3F19F4411101C0982FFF
:103C90008F5F8630A9F79F3F09F40895290F311DE2
:103CA00097FD3A95F90162830895FC0132960896D2
:103CB0002191261303C0DF0111971C92E817F90721
:103CC000B9F708950C943B1E0C94551E029626E0FD
:103CD000FC0111922A95E9F7089508950C946D1E40
:103CE000811105C081E0809382020C946E1E82E0F7
:103CF000FACF83E0809382020C946E1E0C94701EA7
:103D000081E0809382020C946E1E0C94801E0895B4
:103D10008091BA02843031F10E94760210928302BF
:103D200088E190E020E40FB6F894A89580936000B5
:103D30000FBE2093600083B7817F846083BF83B709
:103D4000816083BF7894889583B78E7F83BF0FB6D9
:103D5000F894A8958091600088618093600010922B
:103D600060000FBE089508950895CF930E94B31E7A
:103D70000E94BD120E94B41EC0E08C2F0E948511CB
:103D8000811105C0CF5FCC30C1F7CF91089581E09C
:103D9000FCCF0E94DC060C94DE021F921FB61F921D
:103DA00011248F939F93AF93BF93809183028111CE
:103DB00013C08091B2029091B302A091B402B0916D
:103DC000B5024196A11DB11D8093B2029093B3023A
:103DD000A093B402B093B502BF91AF919F918F9120
:103DE0001F901FBE1F90189582E084BD93E095BD83
:103DF0009AEF97BD80936E0008952FB7F894809145
:103E0000B2029091B302A091B402B091B5022FBF5B
:103E100008952FB7F8946091B2027091B302809127
:103E2000B4029091B5022FBF08959C014FB7F8944A
:103E30008091B2029091B302A091B402B091B50208
:103E40004FBF821B930B0895CF92DF92EF92FF92A8
:103E50002FB7F894C090B202D090B302E090B402B1
:103E6000F090B5022FBFA7019601261B370B480B18
:103E7000590BCA01B901FF90EF90DF90CF900895E0
:103E800078941F921FB61F9211248F939F93AF9324
:103E9000BF938091B2029091B302A091B402B0910D
:103EA000B5020196A11DB11D8093B2029093B30299
:103EB000A093B402B093B502BF91AF919F918F913F
:103EC0001F901FBE1F90189587E797E790930108F2
:103ED0008093000888E19AE00FB6F894A895809343
:103EE00060000FBE90936000FFCF80918F02089515
:103EF00008959C0182E08093E9009FEF8091E800A3
:103F0000915085FD06C085ED8A95F1F7000091116D
:103F1000F5CF8091E80085FF0CC050E040E066E0FE
:103F200070E0C9010E949F218091E8008E77809304
:103F3000E8000895CF93DF93EC0181E08093E900DE
:103F40008FEF9091E800815095FD06C095ED9A9510
:103F5000F1F700008111F5CF8091E80085FF14C0D2
:103F600050E040E068E070E0CE010E949F21809127
:103F7000E8008E778093E80088E0FE01A7E8B2E0D1
:103F800001900D928A95E1F7DF91CF91089580938A
:103F9000840270938602609385028091BA02843015
:103FA00001F582E08093E9008FEF9091E800815065
:103FB00095FD06C095ED9A95F1F700008111F5CFBA
:103FC0008091E80085FF0DC050E040E063E070E0C4
:103FD00084E892E00E949F218091E8008E77809390
:103FE000E8000895BC0184E00C94C71FBC0183E085
:103FF0000C94C71F8091B902811109C00E942F2320
:104000000E948C238091E20084608093E2000895F6
:104010001092B90208950C94801E6091B60281E05E
:10402000611101C080E00C94791E9091BA0281E088
:10403000943009F080E06091B6020C947E1E42E05C
:1040400061EC81E00E94AB2242E261EC82E00E94DE
:10405000AB229091BA0281E0943009F080E0609147
:10406000B6020C94701E8091BC02833009F460C0CB
:1040700030F48130C9F1823009F49CC008958A304F
:1040800009F488C08B3009F46EC0893009F04FC044
:104090008091BB02813209F04AC08091BF029091A9
:1040A000C002029708F043C08091E800877F8093A8
:1040B000E8008091E80082FF36C09091F300809183
:1040C000F200029731F48091F100813011F08630D6
:1040D00021F48091F10080938F028091E8008B772A
:1040E0008093E8000C94DF228091BB02813AF9F4BE
:1040F0008091E800877F8093E8008091BF029091D3
:10410000C002892B61F468E087E892E070E00E94C9
:10411000EE218091E8008B778093E800089560E0BD
:1041200090E080E0F3CF8091BA028111C2CF089570
:104130008091BB02813AD9F78091BF029091C00271
:10414000892BA9F78091E800877F8093E800809110
:10415000E80080FFFCCF809135018093F1008091D1
:10416000E8008E77BDCF8091BB02813201F780914C
:10417000BF029091C002892BD1F68091E800877F21
:104180008093E8000E94DF228091BD028093350178
:104190000C94DC068091BB02813249F68091E800E4
:1041A000877F8093E8000E94DF228091BE02809387
:1041B000900208958091BB02813A09F0B8CF8091B6
:1041C000E800877F8093E8008091E80080FFFCCFC3
:1041D00080919002C2CF84B7877F84BF0FB6F894D6
:1041E000A8958091600088618093600010926000C3
:1041F0000FBE80E890E00FB6F89480936100909332
:1042000061000FBE0C94851E0E942F230E948C23F8
:10421000E2EEF0E080818460808378940C9415262F
:1042200089E291E00C94BD1D8091BA028530A9F419
:104230008091BA02853011F00C94C91E0E94881E2C
:104240008091B8028823A1F30E94B51E882381F3D0
:104250000E9489210E94DC06EBCF089508950C94FA
:104260003121292F33272330310519F168F421300A
:10427000310509F444C02230310509F445C090E00D
:1042800080E030E020E025C02132310549F12232C2
:104290003105A9F780E490E026E633E06115710569
:1042A000C1F08BE790E02BEE32E06130710589F0D0
:1042B000E6CF99278130910581F0009729F0029788
:1042C000F1F6ECE5F2E002C0EAE9F2E0849190E078
:1042D0009F01FA01318320830895EAE8F2E0F6CFE6
:1042E00089E090E020EB32E06115710591F389E0FF
:1042F00090E029EC32E06130710559F3C0CF82E1E2
:1043000090E029ED32E0E5CF8BE390E02EE932E05A
:10431000E0CF80E189BD82E189BD09B400FEFDCF17
:104320008091D8008F7D8093D8008091E0008260DA
:104330008093E0008091E00081FDFCCF0895AF9272
:10434000BF92CF92DF92FF920F931F93CF93DF9391
:104350006C01EB018A010E94FE22F82E811123C01C
:104360000115110539F0F80180819181C81BD90B25
:10437000C80ED91EB12CA12C2097A9F08091E8007D
:1043800085FD22C08091E8008E778093E8000115BA
:104390001105A1F0F80180819181A80EB91EB182AA
:1043A000A08285E0F82E8F2DDF91CF911F910F9184
:1043B000FF90DF90CF90BF90AF9008950E94FE22B3
:1043C0008823D1F2F82EEFCFF60181916F0180930F
:1043D000F1002197FFEFAF1ABF0ACECFFC01809109
:1043E000C1029091C20286179707A0F0611571056E
:1043F00029F49091E8009E779093E80090E0611591
:10440000710551F4911108C08091E80082FF34C019
:1044100080E00895BC01F2CF8091BA028823C1F1F7
:104420008530C1F18091E80083FD30C08091E800C3
:1044300082FDEACF8091E80080FFE1CF8091F30018
:104440002091F200382F6115710519F028303105DF
:1044500058F091E02830310509F090E02091E80013
:104460002E772093E800CBCF81918093F1006150AB
:1044700071092F5F3F4FE7CF8091BA02882341F047
:10448000853041F08091E80083FFBECF81E0089540
:1044900082E0089583E00895FC018091C10290912B
:1044A000C20286179707A0F06115710529F4809163
:1044B000E8008E778093E80090E06115710551F473
:1044C000911108C08091E80082FF35C080E0089516
:1044D000BC01F2CF8091BA028823C9F18530C9F1BD
:1044E0008091E80083FD31C08091E80082FDEACF31
:1044F0008091E80080FFE1CF8091F3002091F200ED
:10450000382F6115710519F02830310558F091E008
:104510002830310509F090E08091E8008E77809393
:10452000E800CBCF84918093F100319661507109FE
:104530002F5F3F4FE6CF8091BA02882341F085304C
:1045400041F08091E80083FFBDCF81E0089582E0D3
:10455000089583E00895982F973028F08F70809306
:10456000E90081E008959093E900242F762F50E030
:10457000981731F07091EC002091ED005091F0000F
:1045800021FD02C09F5FE8CF3091EB003E7F30936A
:10459000EB003091ED003D7F3093ED003091EB006A
:1045A00031603093EB007093EC002093ED0050935A
:1045B000F0002091EE0027FDE5CF80E00895809186
:1045C000BB0287FF13C08091E80082FF06C0809184
:1045D000E8008B778093E80004C08091BA028111D3
:1045E000F2CF08958091BA028823D9F38091E80030
:1045F00080FFF8CF8091E8008E77ECCF2091E40027
:104600003091E50095E6A9012091EC00822F8170A0
:1046100020FF06C08091E80080FF06C080E008957A
:104620002091E80022FD1AC08091BA02882389F007
:10463000853089F08091EB0085FD0FC02091E4006A
:104640003091E50042175307F9F29150E1F684E00A
:10465000089582E0089583E0089581E008950E941E
:104660009D230E94A523E0EEF0E08081816080839D
:10467000E8EDF0E080818F77808319BCA7EDB0E092
:104680008C918E7F8C9380818F7E80831092B90273
:1046900008950F931F93CF93DF930E949D230E9451
:1046A000A523C8EDD0E088818F77888388818068D2
:1046B000888388818F7D888319BC1092BA021092FA
:1046C000B6021092B8021092B70200EE10E0F801A4
:1046D00080818B7F808388818160888342E060E075
:1046E00080E00E94AB22E1EEF0E080818E7F80834B
:1046F000E2EEF0E080818160808380818860808349
:10470000F80180818E7F8083888180618883DF913A
:10471000CF911F910F910895E8EDF0E080818F7E99
:104720008083E7EDF0E080818160808384E082BF58
:1047300081E08093B9020C944923E8EDF0E0808198
:104740008E7F80831092E20008951092DA0010921A
:10475000E10008951F920F920FB60F9211242F932C
:104760003F934F935F936F937F938F939F93AF93F9
:10477000BF93EF93FF938091E10082FF0BC0809184
:10478000E20082FF07C08091E1008B7F8093E1000F
:104790000E9414268091DA0080FF19C08091D80011
:1047A00080FF15C08091DA008E7F8093DA008091BF
:1047B000D90080FF96C080E189BD82E189BD09B43E
:1047C00000FEFDCF81E08093BA020E94FA1F809123
:1047D000E10080FF19C08091E20080FF15C0809148
:1047E000E2008E7F8093E2008091E20080618093FE
:1047F000E2008091D80080628093D80019BC85E0E7
:104800008093BA020E940D208091E10084FF2BC0AA
:104810008091E20084FF27C080E189BD82E189BDEB
:1048200089B5982F917080FFFBCF8091D8008F7D44
:104830008093D8008091E1008F7E8093E100809189
:10484000E2008F7E8093E2008091E200816080939D
:10485000E2008091B602882309F449C084E0809385
:10486000BA020E9415208091E10083FF29C0809147
:10487000E20083FF25C08091E100877F8093E10003
:1048800082E08093BA021092B6028091E1008E7F9E
:104890008093E1008091E2008E7F8093E20080911E
:1048A000E20080618093E20042E060E080E00E94EC
:1048B000AB228091F00088608093F0000E940B2072
:1048C000FF91EF91BF91AF919F918F917F916F91E8
:1048D0005F914F913F912F910F900FBE0F901F90BE
:1048E000189519BC1092BA020E94082070CF8091CE
:1048F000E30087FD93E09093BA02B3CF1F920F922B
:104900000FB60F9211242F933F934F935F936F93A2
:104910007F938F939F93AF93BF93CF93DF93EF9347
:10492000FF93D091E900DF708091EC00C82FC17037
:1049300080FDC0E81092E9008091F000877F8093AD
:10494000F00078940E94C2241092E9008091F00057
:1049500088608093F000CD2BCF70C093E900FF9169
:10496000EF91DF91CF91BF91AF919F918F917F9107
:104970006F915F914F913F912F910F900FBE0F90CC
:104980001F9018951F93CF93DF93CDB7DEB7AA97EB
:104990000FB6F894DEBF0FBECDBF8BEB92E0209137
:1049A000F100FC012193CF01F2E0833C9F07B9F7AE
:1049B0000E9433208091E80083FF1EC18091BB02DA
:1049C0009091BC029A3008F017C1E92FF0E0E8514D
:1049D000F94D0C945626803899F0823809F00CC1B4
:1049E0008091BF028F70873008F006C18093E90084
:1049F0008091EB0085FB882780F91092E90006C0C2
:104A00008091B7029091B802911182609091E80074
:104A1000977F9093E8008093F1001092F1008091CD
:104A2000E8008E77E5C0882309F4D3C0823009F00E
:104A3000E3C08091BD028111D6C08091BF028F700A
:104A40002FEF280F263008F0D7C08093E90020917F
:104A5000EB0020FFC8C0933031F48091EB008062FE
:104A60008093EB00C0C09091EB0090619093EB00BD
:104A700021E030E001C0220F8A95EAF72093EA0096
:104A80001092EA008091EB008860EACF8111B4C0F7
:104A90001091BD021F778091E3008078812B809375
:104AA000E3008091E800877F8093E8000E94DF2286
:104AB0008091E80080FFFCCF8091E30080688093C4
:104AC000E30082E0111183E08093BA0295C0805820
:104AD000823008F091C08091BD029091BE028C3D61
:104AE00023E09207A1F583E08A838AE289834FB7A6
:104AF000F894DE01139620E03EE051E2E32FF0E06F
:104B000050935700E49120FF03C0E295EF703F5FA0
:104B1000EF708E2F90E0EA30C0F0C7968D939D9392
:104B20002F5F243159F74FBF8091E800877F809332
:104B3000E8006AE270E0CE0101960E94EE218091C9
:104B4000E8008B778093E80057C0C096E7CF60916C
:104B5000BF027091C002AE014F5F5F4F0E942F21D4
:104B6000BC01892B09F448C09091E800977F90938D
:104B7000E80089819A810E944C22E1CF8038E1F5DA
:104B80008091E800877F8093E8008091B60280934F
:104B9000F10045CF811130C09091BD02923060F597
:104BA0008091E800877F8093E8009093B6020E948E
:104BB000DF228091B602882311F084E005C0809145
:104BC000E30087FDFACF81E08093BA020E941F20A4
:104BD00013C08091BD02813079F481E0933009F0F7
:104BE00080E08093B8021092E9008091E800877F0E
:104BF0008093E8000E94DF228091E80083FF0AC0D2
:104C00008091E800877F8093E8008091EB008062CC
:104C10008093EB00AA960FB6F894DEBF0FBECDBF0F
:104C2000DF91CF911F9108950895CF938091BA029B
:104C30008823A1F0C091E900CF709091EC00892FFA
:104C4000817090FD80E8C82B1092E9008091E80007
:104C500083FD0E94C224CF70C093E900CF910895D4
:104C60000E942F231092BA020895E8EDF0E08081AF
:104C7000806180838AE18A95F1F700C08091D90034
:104C80008170089597FB072E16F4009407D077FDE6
:104C900009D00E945C2607FC05D03EF490958195D2
:104CA0009F4F0895709561957F4F0895EE0FFF1FF8
:104CB0000590F491E02D0994AA1BBB1B51E107C09C
:104CC000AA1FBB1FA617B70710F0A61BB70B881F9C
:104CD000991F5A95A9F780959095BC01CD0108952B
:104CE000FB01DC0104C08D910190801921F4415039
:104CF0005040C8F7881B990B0895FB01DC0102C0E6
:104D000001900D9241505040D8F70895F999FECF87
:104D100092BD81BDF89A992780B50895A8E1B0E0C9
:104D200042E050E00C94BA26262FF999FECF92BDAE
:104D300081BDF89A019700B4021639F01FBA20BD60
:104D40000FB6F894FA9AF99A0FBE08950396272F92
:104D50000E9495260E949426252F0E949526242F96
:104D60000C9495260196272F0E9495260C94942644
:104D7000DC01CB01FC01F999FECF06C0F2BDE1BD1B
:104D8000F89A319600B40D9241505040B8F708950A
:104D9000F894FFCF8B048B04BC04BC044F056B0557
:104DA000EB04EB0476050206110611066906EB0416
:104DB000EB047206EB06EB06F406F406F606F406C0
:104DC000F406F406EB06EB06FB06F406F406FB0617
:104DD000EB241325FC251325FC2546256725FC25FA
:044DE000BE25CA25FD
:104DE400C8001E0201B1020000000100000000B171
:104DF400020000000601000000B1020407000000E8
:104E04000000002808643C0714751F9A1F791FF6D8
:104E14001FF21F781F01E200E900EA00B500B600A6
:104E2400B700CD008301CC008A01920194012102D4
:104E3400230224022502260227022A02B300B40018
:104E44006F007000818283E200E900EA00B500B6D9
:104E540000B700CD008301CC008A019201940121A6
:104E640002230224022502260227022A02B300B4E6
:104E7400006F007000818283946697C63435F6F71C
:0C4E84003133323600000000000047020D
:00000001FF
